{
  "_format": "hh-sol-artifact-1",
  "contractName": "UserItems",
  "sourceName": "contracts/UserItems.sol",
  "abi": [
    {
      "inputs": [],
      "stateMutability": "nonpayable",
      "type": "constructor"
    },
    {
      "inputs": [
        {
          "internalType": "address",
          "name": "sender",
          "type": "address"
        },
        {
          "internalType": "uint256",
          "name": "balance",
          "type": "uint256"
        },
        {
          "internalType": "uint256",
          "name": "needed",
          "type": "uint256"
        },
        {
          "internalType": "uint256",
          "name": "tokenId",
          "type": "uint256"
        }
      ],
      "name": "ERC1155InsufficientBalance",
      "type": "error"
    },
    {
      "inputs": [
        {
          "internalType": "address",
          "name": "approver",
          "type": "address"
        }
      ],
      "name": "ERC1155InvalidApprover",
      "type": "error"
    },
    {
      "inputs": [
        {
          "internalType": "uint256",
          "name": "idsLength",
          "type": "uint256"
        },
        {
          "internalType": "uint256",
          "name": "valuesLength",
          "type": "uint256"
        }
      ],
      "name": "ERC1155InvalidArrayLength",
      "type": "error"
    },
    {
      "inputs": [
        {
          "internalType": "address",
          "name": "operator",
          "type": "address"
        }
      ],
      "name": "ERC1155InvalidOperator",
      "type": "error"
    },
    {
      "inputs": [
        {
          "internalType": "address",
          "name": "receiver",
          "type": "address"
        }
      ],
      "name": "ERC1155InvalidReceiver",
      "type": "error"
    },
    {
      "inputs": [
        {
          "internalType": "address",
          "name": "sender",
          "type": "address"
        }
      ],
      "name": "ERC1155InvalidSender",
      "type": "error"
    },
    {
      "inputs": [
        {
          "internalType": "address",
          "name": "operator",
          "type": "address"
        },
        {
          "internalType": "address",
          "name": "owner",
          "type": "address"
        }
      ],
      "name": "ERC1155MissingApprovalForAll",
      "type": "error"
    },
    {
      "anonymous": false,
      "inputs": [
        {
          "indexed": true,
          "internalType": "address",
          "name": "account",
          "type": "address"
        },
        {
          "indexed": true,
          "internalType": "address",
          "name": "operator",
          "type": "address"
        },
        {
          "indexed": false,
          "internalType": "bool",
          "name": "approved",
          "type": "bool"
        }
      ],
      "name": "ApprovalForAll",
      "type": "event"
    },
    {
      "anonymous": false,
      "inputs": [
        {
          "indexed": true,
          "internalType": "address",
          "name": "operator",
          "type": "address"
        },
        {
          "indexed": true,
          "internalType": "address",
          "name": "from",
          "type": "address"
        },
        {
          "indexed": true,
          "internalType": "address",
          "name": "to",
          "type": "address"
        },
        {
          "indexed": false,
          "internalType": "uint256[]",
          "name": "ids",
          "type": "uint256[]"
        },
        {
          "indexed": false,
          "internalType": "uint256[]",
          "name": "values",
          "type": "uint256[]"
        }
      ],
      "name": "TransferBatch",
      "type": "event"
    },
    {
      "anonymous": false,
      "inputs": [
        {
          "indexed": true,
          "internalType": "address",
          "name": "operator",
          "type": "address"
        },
        {
          "indexed": true,
          "internalType": "address",
          "name": "from",
          "type": "address"
        },
        {
          "indexed": true,
          "internalType": "address",
          "name": "to",
          "type": "address"
        },
        {
          "indexed": false,
          "internalType": "uint256",
          "name": "id",
          "type": "uint256"
        },
        {
          "indexed": false,
          "internalType": "uint256",
          "name": "value",
          "type": "uint256"
        }
      ],
      "name": "TransferSingle",
      "type": "event"
    },
    {
      "anonymous": false,
      "inputs": [
        {
          "indexed": false,
          "internalType": "string",
          "name": "value",
          "type": "string"
        },
        {
          "indexed": true,
          "internalType": "uint256",
          "name": "id",
          "type": "uint256"
        }
      ],
      "name": "URI",
      "type": "event"
    },
    {
      "inputs": [],
      "name": "CASH",
      "outputs": [
        {
          "internalType": "uint256",
          "name": "",
          "type": "uint256"
        }
      ],
      "stateMutability": "view",
      "type": "function"
    },
    {
      "inputs": [
        {
          "internalType": "address",
          "name": "account",
          "type": "address"
        },
        {
          "internalType": "uint256",
          "name": "id",
          "type": "uint256"
        }
      ],
      "name": "balanceOf",
      "outputs": [
        {
          "internalType": "uint256",
          "name": "",
          "type": "uint256"
        }
      ],
      "stateMutability": "view",
      "type": "function"
    },
    {
      "inputs": [
        {
          "internalType": "address[]",
          "name": "accounts",
          "type": "address[]"
        },
        {
          "internalType": "uint256[]",
          "name": "ids",
          "type": "uint256[]"
        }
      ],
      "name": "balanceOfBatch",
      "outputs": [
        {
          "internalType": "uint256[]",
          "name": "",
          "type": "uint256[]"
        }
      ],
      "stateMutability": "view",
      "type": "function"
    },
    {
      "inputs": [],
      "name": "claimStarterPack",
      "outputs": [],
      "stateMutability": "nonpayable",
      "type": "function"
    },
    {
      "inputs": [
        {
          "internalType": "address",
          "name": "account",
          "type": "address"
        },
        {
          "internalType": "address",
          "name": "operator",
          "type": "address"
        }
      ],
      "name": "isApprovedForAll",
      "outputs": [
        {
          "internalType": "bool",
          "name": "",
          "type": "bool"
        }
      ],
      "stateMutability": "view",
      "type": "function"
    },
    {
      "inputs": [],
      "name": "name",
      "outputs": [
        {
          "internalType": "string",
          "name": "",
          "type": "string"
        }
      ],
      "stateMutability": "view",
      "type": "function"
    },
    {
      "inputs": [
        {
          "internalType": "address",
          "name": "from",
          "type": "address"
        },
        {
          "internalType": "address",
          "name": "to",
          "type": "address"
        },
        {
          "internalType": "uint256[]",
          "name": "ids",
          "type": "uint256[]"
        },
        {
          "internalType": "uint256[]",
          "name": "values",
          "type": "uint256[]"
        },
        {
          "internalType": "bytes",
          "name": "data",
          "type": "bytes"
        }
      ],
      "name": "safeBatchTransferFrom",
      "outputs": [],
      "stateMutability": "nonpayable",
      "type": "function"
    },
    {
      "inputs": [
        {
          "internalType": "address",
          "name": "from",
          "type": "address"
        },
        {
          "internalType": "address",
          "name": "to",
          "type": "address"
        },
        {
          "internalType": "uint256",
          "name": "id",
          "type": "uint256"
        },
        {
          "internalType": "uint256",
          "name": "value",
          "type": "uint256"
        },
        {
          "internalType": "bytes",
          "name": "data",
          "type": "bytes"
        }
      ],
      "name": "safeTransferFrom",
      "outputs": [],
      "stateMutability": "nonpayable",
      "type": "function"
    },
    {
      "inputs": [
        {
          "internalType": "address",
          "name": "operator",
          "type": "address"
        },
        {
          "internalType": "bool",
          "name": "approved",
          "type": "bool"
        }
      ],
      "name": "setApprovalForAll",
      "outputs": [],
      "stateMutability": "nonpayable",
      "type": "function"
    },
    {
      "inputs": [
        {
          "internalType": "bytes4",
          "name": "interfaceId",
          "type": "bytes4"
        }
      ],
      "name": "supportsInterface",
      "outputs": [
        {
          "internalType": "bool",
          "name": "",
          "type": "bool"
        }
      ],
      "stateMutability": "view",
      "type": "function"
    },
    {
      "inputs": [
        {
          "internalType": "uint256",
          "name": "",
          "type": "uint256"
        }
      ],
      "name": "uri",
      "outputs": [
        {
          "internalType": "string",
          "name": "",
          "type": "string"
        }
      ],
      "stateMutability": "view",
      "type": "function"
    }
  ],
  "bytecode": "0x608060405234801561001057600080fd5b50604051806060016040528060268152602001613233602691396100398161006960201b60201c565b50610064336000670de0b6b3a76400006040518060200160405280600081525061007c60201b60201c565b61107c565b80600290816100789190610b9d565b5050565b600073ffffffffffffffffffffffffffffffffffffffff168473ffffffffffffffffffffffffffffffffffffffff16036100ee5760006040517f57f447ce0000000000000000000000000000000000000000000000000000000081526004016100e59190610cb0565b60405180910390fd5b600080610101858561012160201b60201c565b9150915061011960008784848761015160201b60201c565b505050505050565b60608060405191506001825283602083015260408201905060018152826020820152604081016040529250929050565b6101638585858561021b60201b60201c565b600073ffffffffffffffffffffffffffffffffffffffff168473ffffffffffffffffffffffffffffffffffffffff16146102145760006101a76105c960201b60201c565b905060018451036101fd5760006101c86000866105d160201b90919060201c565b905060006101e06000866105d160201b90919060201c565b90506101f68389898585896105e560201b60201c565b5050610212565b61021181878787878761079960201b60201c565b5b505b5050505050565b805182511461026557815181516040517f5b05999100000000000000000000000000000000000000000000000000000000815260040161025c929190610cda565b60405180910390fd5b60006102756105c960201b60201c565b905060005b835181101561048457600061029882866105d160201b90919060201c565b905060006102af83866105d160201b90919060201c565b9050600073ffffffffffffffffffffffffffffffffffffffff168873ffffffffffffffffffffffffffffffffffffffff16146103dc57600080600084815260200190815260200160002060008a73ffffffffffffffffffffffffffffffffffffffff1673ffffffffffffffffffffffffffffffffffffffff1681526020019081526020016000205490508181101561038457888183856040517f03dee4c500000000000000000000000000000000000000000000000000000000815260040161037b9493929190610d03565b60405180910390fd5b81810360008085815260200190815260200160002060008b73ffffffffffffffffffffffffffffffffffffffff1673ffffffffffffffffffffffffffffffffffffffff16815260200190815260200160002081905550505b600073ffffffffffffffffffffffffffffffffffffffff168773ffffffffffffffffffffffffffffffffffffffff1614610477578060008084815260200190815260200160002060008973ffffffffffffffffffffffffffffffffffffffff1673ffffffffffffffffffffffffffffffffffffffff168152602001908152602001600020600082825461046f9190610d77565b925050819055505b505080600101905061027a565b5060018351036105435760006104a46000856105d160201b90919060201c565b905060006104bc6000856105d160201b90919060201c565b90508573ffffffffffffffffffffffffffffffffffffffff168773ffffffffffffffffffffffffffffffffffffffff168473ffffffffffffffffffffffffffffffffffffffff167fc3d58168c5ae7397731d063d5bbf3d657854427343f4c083240f7aacaa2d0f628585604051610534929190610cda565b60405180910390a450506105c2565b8373ffffffffffffffffffffffffffffffffffffffff168573ffffffffffffffffffffffffffffffffffffffff168273ffffffffffffffffffffffffffffffffffffffff167f4a39dc06d4c0dbc64b70af90fd698a233a518aa5d07e595d983b8c0526c8f7fb86866040516105b9929190610e69565b60405180910390a45b5050505050565b600033905090565b600060208202602084010151905092915050565b60008473ffffffffffffffffffffffffffffffffffffffff163b1115610791578373ffffffffffffffffffffffffffffffffffffffff1663f23a6e6187878686866040518663ffffffff1660e01b8152600401610646959493929190610f30565b6020604051808303816000875af192505050801561068257506040513d601f19601f8201168201806040525081019061067f9190610fe7565b60015b610706573d80600081146106b2576040519150601f19603f3d011682016040523d82523d6000602084013e6106b7565b606091505b5060008151036106fe57846040517f57f447ce0000000000000000000000000000000000000000000000000000000081526004016106f59190610cb0565b60405180910390fd5b805181602001fd5b63f23a6e6160e01b7bffffffffffffffffffffffffffffffffffffffffffffffffffffffff1916817bffffffffffffffffffffffffffffffffffffffffffffffffffffffff19161461078f57846040517f57f447ce0000000000000000000000000000000000000000000000000000000081526004016107869190610cb0565b60405180910390fd5b505b505050505050565b60008473ffffffffffffffffffffffffffffffffffffffff163b1115610945578373ffffffffffffffffffffffffffffffffffffffff1663bc197c8187878686866040518663ffffffff1660e01b81526004016107fa959493929190611014565b6020604051808303816000875af192505050801561083657506040513d601f19601f820116820180604052508101906108339190610fe7565b60015b6108ba573d8060008114610866576040519150601f19603f3d011682016040523d82523d6000602084013e61086b565b606091505b5060008151036108b257846040517f57f447ce0000000000000000000000000000000000000000000000000000000081526004016108a99190610cb0565b60405180910390fd5b805181602001fd5b63bc197c8160e01b7bffffffffffffffffffffffffffffffffffffffffffffffffffffffff1916817bffffffffffffffffffffffffffffffffffffffffffffffffffffffff19161461094357846040517f57f447ce00000000000000000000000000000000000000000000000000000000815260040161093a9190610cb0565b60405180910390fd5b505b505050505050565b600081519050919050565b7f4e487b7100000000000000000000000000000000000000000000000000000000600052604160045260246000fd5b7f4e487b7100000000000000000000000000000000000000000000000000000000600052602260045260246000fd5b600060028204905060018216806109ce57607f821691505b6020821081036109e1576109e0610987565b5b50919050565b60008190508160005260206000209050919050565b60006020601f8301049050919050565b600082821b905092915050565b600060088302610a497fffffffffffffffffffffffffffffffffffffffffffffffffffffffffffffffff82610a0c565b610a538683610a0c565b95508019841693508086168417925050509392505050565b6000819050919050565b6000819050919050565b6000610a9a610a95610a9084610a6b565b610a75565b610a6b565b9050919050565b6000819050919050565b610ab483610a7f565b610ac8610ac082610aa1565b848454610a19565b825550505050565b600090565b610add610ad0565b610ae8818484610aab565b505050565b5b81811015610b0c57610b01600082610ad5565b600181019050610aee565b5050565b601f821115610b5157610b22816109e7565b610b2b846109fc565b81016020851015610b3a578190505b610b4e610b46856109fc565b830182610aed565b50505b505050565b600082821c905092915050565b6000610b7460001984600802610b56565b1980831691505092915050565b6000610b8d8383610b63565b9150826002028217905092915050565b610ba68261094d565b67ffffffffffffffff811115610bbf57610bbe610958565b5b610bc982546109b6565b610bd4828285610b10565b600060209050601f831160018114610c075760008415610bf5578287015190505b610bff8582610b81565b865550610c67565b601f198416610c15866109e7565b60005b82811015610c3d57848901518255600182019150602085019450602081019050610c18565b86831015610c5a5784890151610c56601f891682610b63565b8355505b6001600288020188555050505b505050505050565b600073ffffffffffffffffffffffffffffffffffffffff82169050919050565b6000610c9a82610c6f565b9050919050565b610caa81610c8f565b82525050565b6000602082019050610cc56000830184610ca1565b92915050565b610cd481610a6b565b82525050565b6000604082019050610cef6000830185610ccb565b610cfc6020830184610ccb565b9392505050565b6000608082019050610d186000830187610ca1565b610d256020830186610ccb565b610d326040830185610ccb565b610d3f6060830184610ccb565b95945050505050565b7f4e487b7100000000000000000000000000000000000000000000000000000000600052601160045260246000fd5b6000610d8282610a6b565b9150610d8d83610a6b565b9250828201905080821115610da557610da4610d48565b5b92915050565b600081519050919050565b600082825260208201905092915050565b6000819050602082019050919050565b610de081610a6b565b82525050565b6000610df28383610dd7565b60208301905092915050565b6000602082019050919050565b6000610e1682610dab565b610e208185610db6565b9350610e2b83610dc7565b8060005b83811015610e5c578151610e438882610de6565b9750610e4e83610dfe565b925050600181019050610e2f565b5085935050505092915050565b60006040820190508181036000830152610e838185610e0b565b90508181036020830152610e978184610e0b565b90509392505050565b600081519050919050565b600082825260208201905092915050565b60005b83811015610eda578082015181840152602081019050610ebf565b60008484015250505050565b6000601f19601f8301169050919050565b6000610f0282610ea0565b610f0c8185610eab565b9350610f1c818560208601610ebc565b610f2581610ee6565b840191505092915050565b600060a082019050610f456000830188610ca1565b610f526020830187610ca1565b610f5f6040830186610ccb565b610f6c6060830185610ccb565b8181036080830152610f7e8184610ef7565b90509695505050505050565b600080fd5b60007fffffffff0000000000000000000000000000000000000000000000000000000082169050919050565b610fc481610f8f565b8114610fcf57600080fd5b50565b600081519050610fe181610fbb565b92915050565b600060208284031215610ffd57610ffc610f8a565b5b600061100b84828501610fd2565b91505092915050565b600060a0820190506110296000830188610ca1565b6110366020830187610ca1565b81810360408301526110488186610e0b565b9050818103606083015261105c8185610e0b565b905081810360808301526110708184610ef7565b90509695505050505050565b6121a88061108b6000396000f3fe608060405234801561001057600080fd5b50600436106100a85760003560e01c80634e1273f4116100715780634e1273f4146101775780639cd51d25146101a7578063a22cb465146101b1578063c4969815146101cd578063e985e9c5146101eb578063f242432a1461021b576100a8565b8062fdd58e146100ad57806301ffc9a7146100dd57806306fdde031461010d5780630e89341c1461012b5780632eb2c2d61461015b575b600080fd5b6100c760048036038101906100c29190611595565b610237565b6040516100d491906115e4565b60405180910390f35b6100f760048036038101906100f29190611657565b610291565b604051610104919061169f565b60405180910390f35b610115610373565b604051610122919061174a565b60405180910390f35b6101456004803603810190610140919061176c565b6103ac565b604051610152919061174a565b60405180910390f35b61017560048036038101906101709190611996565b610440565b005b610191600480360381019061018c9190611b28565b6104e8565b60405161019e9190611c5e565b60405180910390f35b6101af6105f1565b005b6101cb60048036038101906101c69190611cac565b6106fe565b005b6101d5610714565b6040516101e291906115e4565b60405180910390f35b61020560048036038101906102009190611cec565b610719565b604051610212919061169f565b60405180910390f35b61023560048036038101906102309190611d2c565b6107ad565b005b600080600083815260200190815260200160002060008473ffffffffffffffffffffffffffffffffffffffff1673ffffffffffffffffffffffffffffffffffffffff16815260200190815260200160002054905092915050565b60007fd9b67a26000000000000000000000000000000000000000000000000000000007bffffffffffffffffffffffffffffffffffffffffffffffffffffffff1916827bffffffffffffffffffffffffffffffffffffffffffffffffffffffff1916148061035c57507f0e89341c000000000000000000000000000000000000000000000000000000007bffffffffffffffffffffffffffffffffffffffffffffffffffffffff1916827bffffffffffffffffffffffffffffffffffffffffffffffffffffffff1916145b8061036c575061036b82610855565b5b9050919050565b6040518060400160405280600981526020017f557365724974656d73000000000000000000000000000000000000000000000081525081565b6060600280546103bb90611df2565b80601f01602080910402602001604051908101604052809291908181526020018280546103e790611df2565b80156104345780601f1061040957610100808354040283529160200191610434565b820191906000526020600020905b81548152906001019060200180831161041757829003601f168201915b50505050509050919050565b600061044a6108bf565b90508073ffffffffffffffffffffffffffffffffffffffff168673ffffffffffffffffffffffffffffffffffffffff161415801561048f575061048d8682610719565b155b156104d35780866040517fe237d9220000000000000000000000000000000000000000000000000000000081526004016104ca929190611e32565b60405180910390fd5b6104e086868686866108c7565b505050505050565b6060815183511461053457815183516040517f5b05999100000000000000000000000000000000000000000000000000000000815260040161052b929190611e5b565b60405180910390fd5b6000835167ffffffffffffffff8111156105515761055061179e565b5b60405190808252806020026020018201604052801561057f5781602001602082028036833780820191505090505b50905060005b84518110156105e6576105bc6105a482876109bf90919063ffffffff16565b6105b783876109d390919063ffffffff16565b610237565b8282815181106105cf576105ce611e84565b5b602002602001018181525050806001019050610585565b508091505092915050565b600360003373ffffffffffffffffffffffffffffffffffffffff1673ffffffffffffffffffffffffffffffffffffffff16815260200190815260200160002060009054906101000a900460ff161561067e576040517f08c379a000000000000000000000000000000000000000000000000000000000815260040161067590611eff565b60405180910390fd5b6001600360003373ffffffffffffffffffffffffffffffffffffffff1673ffffffffffffffffffffffffffffffffffffffff16815260200190815260200160002060006101000a81548160ff0219169083151502179055506106fc33600069021e19e0c9bab2400000604051806020016040528060008152506109e7565b565b6107106107096108bf565b8383610a80565b5050565b600081565b6000600160008473ffffffffffffffffffffffffffffffffffffffff1673ffffffffffffffffffffffffffffffffffffffff16815260200190815260200160002060008373ffffffffffffffffffffffffffffffffffffffff1673ffffffffffffffffffffffffffffffffffffffff16815260200190815260200160002060009054906101000a900460ff16905092915050565b60006107b76108bf565b90508073ffffffffffffffffffffffffffffffffffffffff168673ffffffffffffffffffffffffffffffffffffffff16141580156107fc57506107fa8682610719565b155b156108405780866040517fe237d922000000000000000000000000000000000000000000000000000000008152600401610837929190611e32565b60405180910390fd5b61084d8686868686610bf0565b505050505050565b60007f01ffc9a7000000000000000000000000000000000000000000000000000000007bffffffffffffffffffffffffffffffffffffffffffffffffffffffff1916827bffffffffffffffffffffffffffffffffffffffffffffffffffffffff1916149050919050565b600033905090565b600073ffffffffffffffffffffffffffffffffffffffff168473ffffffffffffffffffffffffffffffffffffffff16036109395760006040517f57f447ce0000000000000000000000000000000000000000000000000000000081526004016109309190611f1f565b60405180910390fd5b600073ffffffffffffffffffffffffffffffffffffffff168573ffffffffffffffffffffffffffffffffffffffff16036109ab5760006040517f01a835140000000000000000000000000000000000000000000000000000000081526004016109a29190611f1f565b60405180910390fd5b6109b88585858585610cfb565b5050505050565b600060208202602084010151905092915050565b600060208202602084010151905092915050565b600073ffffffffffffffffffffffffffffffffffffffff168473ffffffffffffffffffffffffffffffffffffffff1603610a595760006040517f57f447ce000000000000000000000000000000000000000000000000000000008152600401610a509190611f1f565b60405180910390fd5b600080610a668585610dad565b91509150610a78600087848487610cfb565b505050505050565b600073ffffffffffffffffffffffffffffffffffffffff168273ffffffffffffffffffffffffffffffffffffffff1603610af25760006040517fced3e100000000000000000000000000000000000000000000000000000000008152600401610ae99190611f1f565b60405180910390fd5b80600160008573ffffffffffffffffffffffffffffffffffffffff1673ffffffffffffffffffffffffffffffffffffffff16815260200190815260200160002060008473ffffffffffffffffffffffffffffffffffffffff1673ffffffffffffffffffffffffffffffffffffffff16815260200190815260200160002060006101000a81548160ff0219169083151502179055508173ffffffffffffffffffffffffffffffffffffffff168373ffffffffffffffffffffffffffffffffffffffff167f17307eab39ab6107e8899845ad3d59bd9653f200f220920489ca2b5937696c3183604051610be3919061169f565b60405180910390a3505050565b600073ffffffffffffffffffffffffffffffffffffffff168473ffffffffffffffffffffffffffffffffffffffff1603610c625760006040517f57f447ce000000000000000000000000000000000000000000000000000000008152600401610c599190611f1f565b60405180910390fd5b600073ffffffffffffffffffffffffffffffffffffffff168573ffffffffffffffffffffffffffffffffffffffff1603610cd45760006040517f01a83514000000000000000000000000000000000000000000000000000000008152600401610ccb9190611f1f565b60405180910390fd5b600080610ce18585610dad565b91509150610cf28787848487610cfb565b50505050505050565b610d0785858585610ddd565b600073ffffffffffffffffffffffffffffffffffffffff168473ffffffffffffffffffffffffffffffffffffffff1614610da6576000610d456108bf565b90506001845103610d95576000610d666000866109d390919063ffffffff16565b90506000610d7e6000866109d390919063ffffffff16565b9050610d8e838989858589611185565b5050610da4565b610da3818787878787611339565b5b505b5050505050565b60608060405191506001825283602083015260408201905060018152826020820152604081016040529250929050565b8051825114610e2757815181516040517f5b059991000000000000000000000000000000000000000000000000000000008152600401610e1e929190611e5b565b60405180910390fd5b6000610e316108bf565b905060005b8351811015611040576000610e5482866109d390919063ffffffff16565b90506000610e6b83866109d390919063ffffffff16565b9050600073ffffffffffffffffffffffffffffffffffffffff168873ffffffffffffffffffffffffffffffffffffffff1614610f9857600080600084815260200190815260200160002060008a73ffffffffffffffffffffffffffffffffffffffff1673ffffffffffffffffffffffffffffffffffffffff16815260200190815260200160002054905081811015610f4057888183856040517f03dee4c5000000000000000000000000000000000000000000000000000000008152600401610f379493929190611f3a565b60405180910390fd5b81810360008085815260200190815260200160002060008b73ffffffffffffffffffffffffffffffffffffffff1673ffffffffffffffffffffffffffffffffffffffff16815260200190815260200160002081905550505b600073ffffffffffffffffffffffffffffffffffffffff168773ffffffffffffffffffffffffffffffffffffffff1614611033578060008084815260200190815260200160002060008973ffffffffffffffffffffffffffffffffffffffff1673ffffffffffffffffffffffffffffffffffffffff168152602001908152602001600020600082825461102b9190611fae565b925050819055505b5050806001019050610e36565b5060018351036110ff5760006110606000856109d390919063ffffffff16565b905060006110786000856109d390919063ffffffff16565b90508573ffffffffffffffffffffffffffffffffffffffff168773ffffffffffffffffffffffffffffffffffffffff168473ffffffffffffffffffffffffffffffffffffffff167fc3d58168c5ae7397731d063d5bbf3d657854427343f4c083240f7aacaa2d0f6285856040516110f0929190611e5b565b60405180910390a4505061117e565b8373ffffffffffffffffffffffffffffffffffffffff168573ffffffffffffffffffffffffffffffffffffffff168273ffffffffffffffffffffffffffffffffffffffff167f4a39dc06d4c0dbc64b70af90fd698a233a518aa5d07e595d983b8c0526c8f7fb8686604051611175929190611fe2565b60405180910390a45b5050505050565b60008473ffffffffffffffffffffffffffffffffffffffff163b1115611331578373ffffffffffffffffffffffffffffffffffffffff1663f23a6e6187878686866040518663ffffffff1660e01b81526004016111e695949392919061206e565b6020604051808303816000875af192505050801561122257506040513d601f19601f8201168201806040525081019061121f91906120dd565b60015b6112a6573d8060008114611252576040519150601f19603f3d011682016040523d82523d6000602084013e611257565b606091505b50600081510361129e57846040517f57f447ce0000000000000000000000000000000000000000000000000000000081526004016112959190611f1f565b60405180910390fd5b805181602001fd5b63f23a6e6160e01b7bffffffffffffffffffffffffffffffffffffffffffffffffffffffff1916817bffffffffffffffffffffffffffffffffffffffffffffffffffffffff19161461132f57846040517f57f447ce0000000000000000000000000000000000000000000000000000000081526004016113269190611f1f565b60405180910390fd5b505b505050505050565b60008473ffffffffffffffffffffffffffffffffffffffff163b11156114e5578373ffffffffffffffffffffffffffffffffffffffff1663bc197c8187878686866040518663ffffffff1660e01b815260040161139a95949392919061210a565b6020604051808303816000875af19250505080156113d657506040513d601f19601f820116820180604052508101906113d391906120dd565b60015b61145a573d8060008114611406576040519150601f19603f3d011682016040523d82523d6000602084013e61140b565b606091505b50600081510361145257846040517f57f447ce0000000000000000000000000000000000000000000000000000000081526004016114499190611f1f565b60405180910390fd5b805181602001fd5b63bc197c8160e01b7bffffffffffffffffffffffffffffffffffffffffffffffffffffffff1916817bffffffffffffffffffffffffffffffffffffffffffffffffffffffff1916146114e357846040517f57f447ce0000000000000000000000000000000000000000000000000000000081526004016114da9190611f1f565b60405180910390fd5b505b505050505050565b6000604051905090565b600080fd5b600080fd5b600073ffffffffffffffffffffffffffffffffffffffff82169050919050565b600061152c82611501565b9050919050565b61153c81611521565b811461154757600080fd5b50565b60008135905061155981611533565b92915050565b6000819050919050565b6115728161155f565b811461157d57600080fd5b50565b60008135905061158f81611569565b92915050565b600080604083850312156115ac576115ab6114f7565b5b60006115ba8582860161154a565b92505060206115cb85828601611580565b9150509250929050565b6115de8161155f565b82525050565b60006020820190506115f960008301846115d5565b92915050565b60007fffffffff0000000000000000000000000000000000000000000000000000000082169050919050565b611634816115ff565b811461163f57600080fd5b50565b6000813590506116518161162b565b92915050565b60006020828403121561166d5761166c6114f7565b5b600061167b84828501611642565b91505092915050565b60008115159050919050565b61169981611684565b82525050565b60006020820190506116b46000830184611690565b92915050565b600081519050919050565b600082825260208201905092915050565b60005b838110156116f45780820151818401526020810190506116d9565b60008484015250505050565b6000601f19601f8301169050919050565b600061171c826116ba565b61172681856116c5565b93506117368185602086016116d6565b61173f81611700565b840191505092915050565b600060208201905081810360008301526117648184611711565b905092915050565b600060208284031215611782576117816114f7565b5b600061179084828501611580565b91505092915050565b600080fd5b7f4e487b7100000000000000000000000000000000000000000000000000000000600052604160045260246000fd5b6117d682611700565b810181811067ffffffffffffffff821117156117f5576117f461179e565b5b80604052505050565b60006118086114ed565b905061181482826117cd565b919050565b600067ffffffffffffffff8211156118345761183361179e565b5b602082029050602081019050919050565b600080fd5b600061185d61185884611819565b6117fe565b905080838252602082019050602084028301858111156118805761187f611845565b5b835b818110156118a957806118958882611580565b845260208401935050602081019050611882565b5050509392505050565b600082601f8301126118c8576118c7611799565b5b81356118d884826020860161184a565b91505092915050565b600080fd5b600067ffffffffffffffff8211156119015761190061179e565b5b61190a82611700565b9050602081019050919050565b82818337600083830152505050565b6000611939611934846118e6565b6117fe565b905082815260208101848484011115611955576119546118e1565b5b611960848285611917565b509392505050565b600082601f83011261197d5761197c611799565b5b813561198d848260208601611926565b91505092915050565b600080600080600060a086880312156119b2576119b16114f7565b5b60006119c08882890161154a565b95505060206119d18882890161154a565b945050604086013567ffffffffffffffff8111156119f2576119f16114fc565b5b6119fe888289016118b3565b935050606086013567ffffffffffffffff811115611a1f57611a1e6114fc565b5b611a2b888289016118b3565b925050608086013567ffffffffffffffff811115611a4c57611a4b6114fc565b5b611a5888828901611968565b9150509295509295909350565b600067ffffffffffffffff821115611a8057611a7f61179e565b5b602082029050602081019050919050565b6000611aa4611a9f84611a65565b6117fe565b90508083825260208201905060208402830185811115611ac757611ac6611845565b5b835b81811015611af05780611adc888261154a565b845260208401935050602081019050611ac9565b5050509392505050565b600082601f830112611b0f57611b0e611799565b5b8135611b1f848260208601611a91565b91505092915050565b60008060408385031215611b3f57611b3e6114f7565b5b600083013567ffffffffffffffff811115611b5d57611b5c6114fc565b5b611b6985828601611afa565b925050602083013567ffffffffffffffff811115611b8a57611b896114fc565b5b611b96858286016118b3565b9150509250929050565b600081519050919050565b600082825260208201905092915050565b6000819050602082019050919050565b611bd58161155f565b82525050565b6000611be78383611bcc565b60208301905092915050565b6000602082019050919050565b6000611c0b82611ba0565b611c158185611bab565b9350611c2083611bbc565b8060005b83811015611c51578151611c388882611bdb565b9750611c4383611bf3565b925050600181019050611c24565b5085935050505092915050565b60006020820190508181036000830152611c788184611c00565b905092915050565b611c8981611684565b8114611c9457600080fd5b50565b600081359050611ca681611c80565b92915050565b60008060408385031215611cc357611cc26114f7565b5b6000611cd18582860161154a565b9250506020611ce285828601611c97565b9150509250929050565b60008060408385031215611d0357611d026114f7565b5b6000611d118582860161154a565b9250506020611d228582860161154a565b9150509250929050565b600080600080600060a08688031215611d4857611d476114f7565b5b6000611d568882890161154a565b9550506020611d678882890161154a565b9450506040611d7888828901611580565b9350506060611d8988828901611580565b925050608086013567ffffffffffffffff811115611daa57611da96114fc565b5b611db688828901611968565b9150509295509295909350565b7f4e487b7100000000000000000000000000000000000000000000000000000000600052602260045260246000fd5b60006002820490506001821680611e0a57607f821691505b602082108103611e1d57611e1c611dc3565b5b50919050565b611e2c81611521565b82525050565b6000604082019050611e476000830185611e23565b611e546020830184611e23565b9392505050565b6000604082019050611e7060008301856115d5565b611e7d60208301846115d5565b9392505050565b7f4e487b7100000000000000000000000000000000000000000000000000000000600052603260045260246000fd5b7f53746172746572207061636b20616c726561647920636c61696d656400000000600082015250565b6000611ee9601c836116c5565b9150611ef482611eb3565b602082019050919050565b60006020820190508181036000830152611f1881611edc565b9050919050565b6000602082019050611f346000830184611e23565b92915050565b6000608082019050611f4f6000830187611e23565b611f5c60208301866115d5565b611f6960408301856115d5565b611f7660608301846115d5565b95945050505050565b7f4e487b7100000000000000000000000000000000000000000000000000000000600052601160045260246000fd5b6000611fb98261155f565b9150611fc48361155f565b9250828201905080821115611fdc57611fdb611f7f565b5b92915050565b60006040820190508181036000830152611ffc8185611c00565b905081810360208301526120108184611c00565b90509392505050565b600081519050919050565b600082825260208201905092915050565b600061204082612019565b61204a8185612024565b935061205a8185602086016116d6565b61206381611700565b840191505092915050565b600060a0820190506120836000830188611e23565b6120906020830187611e23565b61209d60408301866115d5565b6120aa60608301856115d5565b81810360808301526120bc8184612035565b90509695505050505050565b6000815190506120d78161162b565b92915050565b6000602082840312156120f3576120f26114f7565b5b6000612101848285016120c8565b91505092915050565b600060a08201905061211f6000830188611e23565b61212c6020830187611e23565b818103604083015261213e8186611c00565b905081810360608301526121528185611c00565b905081810360808301526121668184612035565b9050969550505050505056fea26469706673582212205ffa218323011e940d63e2bef93aac70d37398aebe6d2fad2dd0cb3ac9d1fbf064736f6c634300081c003368747470733a2f2f6c6f63616c686f73743a383030312f6974656d732f7b69647d2e6a736f6e",
  "linkReferences": {},
  "deployedLinkReferences": {}
}